:020000040020DA
:10200000007500208D222000E3C62000E1C62000DC
:10201000E1C62000E1C62000E1C62000000000006B
:10202000000000000000000000000000BFD92000F8
:10203000E1C6200000000000DDD920001FCA2000FA
:1020400031CA200037CA20003DCA200043CA200000
:102050000000000025CA20002BCA2000E1C6200095
:10206000E1C62000000000000000000000000000A9
:102070000000000000000000E1C620000000000099
:102080000000000000000000E1C62000E1C62000C2
:10209000E1C62000E1C62000E1C62000E1C6200024
:1020A000E1C62000E1C62000E1C62000E1C6200014
:1020B000E1C62000E1C62000E1C62000E1C6200004
:1020C000E1C62000E1C62000E1C62000E1C62000F4
:1020D000E1C6200000000000000000000000000039
:1020E00000000000000000000000000000000000F0
:1020F00000000000000000001948200029482000CE
:1021000000000000000000000000000000000000CF
:1021100000000000000000000000000000000000BF
:1021200000000000000000000000000000000000AF
:10213000000000000000000000000000000000009F
:10214000000000000000000000000000000000008F
:10215000000000000000000000000000000000007F
:10216000000000000000000000000000000000006F
:10217000000000000000000000000000000000005F
:10218000000000000000000000000000000000004F
:10219000000000000000000000000000000000003F
:1021A000000000000000000000000000000000002F
:1021B000000000000000000000000000000000001F
:1021C000000000000000000000000000000000000F
:1021D00000000000000000000000000000000000FF
:1021E00000000000000000000000000000000000EF
:1021F00000000000000000000000000000000000DF
:1022000000000000000000000000000000000000CE
:1022100000000000000000000000000000000000BE
:1022200000000000000000000000000000000000AE
:10223000000000000000000000000000000000009E
:10224000000000000000000000000000000000008E
:10225000000000000000000000000000000000007E
:10226000000000000000000000000000000000006E
:10227000E1C62000FD46200021472000CD4220007D
:1022800099492000A13C2000E1C6200008B5094B77
:10229000FF221A600848094A4824E369121A0849CB
:1022A00098470848084AA369121A0021984701F084
:1022B00061F8FEE7B4200D4040400020604200205D
:1022C00040EC200060420020FF6C0020002210B58E
:1022D00011460446104605F0CDFE044B04821860FA
:1022E00003F016FC024B188010BD00BF70420020A6
:1022F00030580020024B1888013080B21880704797
:1023000030580020F7B504460123216003710023F3
:102310000B700E46016800790A7842EA80120A7052
:10232000206862790178120102F030020A430270DB
:10233000A27A206802F00F0102780A430270226834
:10234000A179517022892168120A8A702268218934
:10235000D170A279002A00F04081224652F80A5B2F
:102360000435A17A8B4205D212F8011F013305F81A
:10237000011BF6E7E37C03F0020303F0FF015BB10E
:1023800094F86A302A460093002104F16B0301207F
:102390000AF03AFA01210544E37C1A0708D5236CB8
:1023A0002A4600930320636C0AF02EFA03210544A9
:1023B000E37CDB060AD594F824302A4600930420F7
:1023C00004F125030AF020FA04210544E37C9F066A
:1023D00006D52A46002305200AF0E5F90521054423
:1023E000E37C580606D52A46636E06200AF0DBF920
:1023F0000621054494F91330002B07DA2A46B4F875
:10240000503007200AF0CFF907210544237DDA0771
:102410000AD52F230193A36C2A4600930820E36C6E
:102420000AF002FA08210544237D1B070AD52F2351
:102430000193E36D2A4600930B20236E0AF0F4F912
:102440000B210544237DDF0606D52A46A38B0C20ED
:102450000AF0A9F90C210544237D580606D52A4621
:10246000236A0E200AF09FF90E21054494F91430D6
:10247000002B0CDA26230193D4F894302A460093DB
:102480000F20D4F898300AF0CFF90F210544637D6E
:102490009A0707D52A46B4F8683011200AF083F964
:1024A00011210544637DDB060AD526230193636D64
:1024B0002A4600931420A36D0AF0B6F914210544AE
:1024C00094F91530002B1CDA636F94F878201B0107
:1024D0000AB143F00803B4F87A00002700097A1C17
:1024E000400892B201D01746F9E7002A18BF3A46D1
:1024F00002F00F02134317202A460AF054F917215D
:102500000544A37D1F071DD5D4F8803094F884209E
:102510001B010AB143F00803B4F886000027000944
:102520007A1C400892B201D01746F9E7002A18BF7A
:102530003A4602F00F0213431B202A460AF033F9F1
:102540001B210544A37DD80607D52A46D4F88C3034
:102550001C200AF028F91C210544E37D1A0708D540
:10256000236B2A4600932320636B0AF04DF9232145
:10257000054494F91730002B08DAA36B2A46009320
:102580002720E36B0AF040F927210544A37EDB06F0
:1025900006D52A46D4F890303C200AF004F90544C8
:1025A0002368EB1A3E2B11DCB4F89E3013B1FF23E5
:1025B00005F8013B2846B4F89E20D4F8A01009F095
:1025C000AFFFB4F89E00AD1B284407E0044A054B5A
:1025D0000025256028461A6000E0042003B0F0BD05
:1025E000B0E22000404000202DE9F041884610492B
:1025F00004460F680D46BE46944600F1100276462A
:1026000020686168083403C69442B646F7D11A467A
:1026100061463846A7F8128005F088FE2C68102223
:102620000021204609F0E0FF00236382BDE8F0812D
:10263000704200202DE9F04F8846054685B092464D
:102640000021A42209F0D0FFC5F8008098F800907E
:102650004FEA991985F8049098F80030B9F1010F04
:10266000C3F301136B7198F8004004F00F06AE72CB
:1026700098F80130AB7198F8022098F8033043EADB
:1026800002232B8101D0A64A02E0082E04D9A54AD4
:10269000A54B80201A603FE108F104042146324630
:1026A00005F10B0009F0C6FE002708EB0A03C5F888
:1026B0001370C5F81770344403934FF0100B039B4D
:1026C0009C4280F02881267806F0F003F02B15D18B
:1026D0000134C8EB0408C8EB0A0A1FFA8AFABAF1F7
:1026E000920F8ABF9223A5F89EA0A5F89E30B5F858
:1026F0009E300020C5F8A040E0540DE133090D2BB9
:1027000006F00F0603D1637802340D330AE00E2B76
:1027100003BFA378627803F20D13013404BF03EB07
:10272000022303340D2E03D114F8016B0D3608E09B
:102730000E2E06D16278267802F20D1202EB0626E2
:1027400002341F4405EBD70107F0070309FA03F22F
:10275000CB7C0E2F43EA0203CB7470D02BD8062F0C
:1027600000F0B38018D8032F00F088800CD8012F18
:1027700040F0C8803246082E28BF082285F86A201B
:10278000214605F16B0071E0042F5ED0052F40F06B
:10279000B98085F89C90BCE0082F00F0828070D34F
:1027A0000B2F75D00C2F40F0AD803146204609F03C
:1027B0009BFFA883ADE01B2F00F08D8028D8112F40
:1027C0004DD00BD80F2F40F09D802623009322463A
:1027D000334605F1940105F198006AE0142F6BD09F
:1027E000172F40F08F803146204609F07DFFC0F35F
:1027F000C00300F0070285F878300BFA02F3A5F861
:102800007A3020F00F0393400009EB67686780E09F
:10281000232F2ED008D81C2F74D13146204609F022
:1028200063FFC5F88C0074E0272F22D03C2F69D1BC
:102830003146204609F058FFC5F8900069E031465E
:10284000204609F051FF286263E03246082E28BF77
:10285000082285F82420214605F1250006E03146AE
:10286000204609F041FFA5F8680052E009F0E2FDBA
:102870004FE02E4A2C4BA5201A604DE06C642E646C
:1028800047E03146204609F02FFFA5F8500040E010
:102890002F2300932246334605F15C0105F16000C9
:1028A00007E02F2300932246334605F1480105F146
:1028B0004C0009F024FF2CE02623009322463346E7
:1028C00005F1540105F15800F3E73146204609F0BF
:1028D0000BFF68661DE03146204609F005FFC0F396
:1028E000C00300F0070285F884300BFA02F3A5F864
:1028F000863020F00F0393400009C5F88830C5F8F2
:10290000800006E0FB0704D5094A074B82201A60C5
:1029100002E03444D3E6002005B0BDE8F08F00BFEC
:10292000DFE22000F6E22000404000201BE3200010
:1029300042E320002DE9F04F038887B0814633B190
:10294000B3F5AD7F13D0002303800320A9E1A6488F
:10295000A64900F0E1FC00F02DFA43F21630FFF733
:10296000B5FC4FF4AD73A9F80030012099E1A04BFC
:102970001B788B4240F08F819E4D00232B709E4B25
:102980001B789807EDD59D4E9D4B9E4C31681A885B
:102990002046FFF74FFEB046074628709A4E0028A3
:1029A00040F01A81A379013B032B00F2D880974BAA
:1029B00097491B7820892833CA5A083100F004FA55
:1029C0003060002800F0C5808023ADF80A306379BC
:1029D0000397049705971BB923894522022104E038
:1029E000FFF788FC0346452201218A4809F059FF78
:1029F000A27A1AB18849874809F066FF04AB0093B0
:102A000000220DF10A0303A97E4809F08BFF40B1B3
:102A1000BDF80A30802B28BF8023ADF80A30049B14
:102A200005937E4BD3F800A0BAF1000F00F08D8023
:102A30003268784FDFF8CCB105A90091BDF80A30B3
:102A4000743239465846D047BA4600286DD02B78A4
:102A5000002B40F0B8809BF8163019070DD597F978
:102A60000630002B09DBBB7D1A0706D4614BA1227F
:102A70001A706B4A6B4B1A6057E094F91530059A3F
:102A8000002B3FDA049B9A4221D1BAF89E10614F85
:102A90008A4204D38223BB710F22634930E0BDF820
:102AA0000A308A1A9A4294BF0022012203993846BA
:102AB00009F051FF0499B7F89E30BDF80A205B1A5F
:102AC000D7F8A0009A4228BF1A46014418E0013204
:102AD0000399BDF80A3006D1BAF89E209A4294BFF5
:102AE0000022012200E001224A4F384609F033FF5C
:102AF000BDF80A20BAF89E30934216D9D7F8A01034
:102B0000384610E0A2B1013218BF01220021802313
:102B1000404809F020FFBAF89E20DAF8A0107F2A7A
:102B20003C4888BF802209F038FF2B78002B4AD11F
:102B30003768384807F13601FFF7E4FB80B2B88602
:102B4000002840D1C1232B703DE0A1232B70374AD0
:102B500002E0A323364A2B70324B1A6033E06368DD
:102B600023F07F4323F0FF0313B9C3232B700BE043
:102B70006379032B08D1254B25481B7822892833FC
:102B8000C15A083000F0F6F9208900F0A1F9306050
:102B900040B1C76AD0F830A000F038F917B1194930
:102BA0005046B847002333606379164A012B0AD890
:102BB000D37C5B0607D5154B15481B782833C15AC3
:102BC000083000F011FB2B783BB9306800283FF447
:102BD000C8AE00F031F9C4E62B78C22B306829D199
:102BE00000F014F9BDE600BF6C4000205EE3200059
:102BF000F56C0020125F0020186A0020246A002073
:102C000008690020784200201C430020A7650020AE
:102C1000186900202043002083420020C443002084
:102C20006FE32000404000207FE320008FE320007E
:102C3000A0E3200000F0EAF82A781B4BC32A03D156
:102C400000221A70032104E0BF2A84BFA0221A7058
:102C500002212A782389154809F023FE144B1C68A9
:102C6000204609F00FFD21460246104809F095FE66
:102C7000104BD8F800501B780F4C283329460B48CE
:102C80001E5BFFF73FFB2A4683B2314604F1080082
:102C9000FFF7AAFC65E688297FF463AE00F026F909
:102CA0005FE607B0BDE8F08F125F00207842002099
:102CB00040400020A765002018690020002101483D
:102CC00002F04ABE444000202DE9F3411F4603882C
:102CD00004461646089D23B140F2991293422DD026
:102CE0004AE02F4A03611268C36042602D4A1370A4
:102CF0002D4A13602D4A1370FFF7FCFA3A462881DB
:102D0000314600F061F8A060E0B1294BC362A368CE
:102D10001C63216921B192230022284609F01BFE81
:102D2000A668284606F13601FFF7ECFAB086A068DF
:102D300000F082F840F29913238021E082291FD10C
:102D4000E06818B900232380022025E0DFF85880CE
:102D500000230093134A414609F0E4FD2269D8F8A4
:102D600000309A420ED1099BE068984723690133ED
:102D700023610C4B1B7853B90023238003200BE005
:102D8000012009E0094A137801331370F1E7074B7A
:102D90001B78032BF0D8AFE702B0BDE8F08100BF8D
:102DA0007C4A0020135F002074420020145F002042
:102DB000ADC92000024B1A68024B1A60704700BF71
:102DC0007C4A0020CC430020F8B507460D480D464C
:102DD000164609F072FF044690B129460023037697
:102DE000878000F11A0305F1100251F8040B91429B
:102DF00043F8040BF9D166852146034809F02EFFFC
:102E00002046F8BD54400020C843002010B50446B9
:102E100060B1083002F07CFC2146054809F00BFF48
:102E20002146BDE81040034809F05BBF10BD00BF5C
:102E3000C8430020544000202DE9F041044600F131
:102E40001A07838E00F13602418D3846FFF7CCFB1E
:102E500094F83650C5F3011575BB237E032B1AD8A1
:102E600053B902F055FEC023B0FBF3F202FB13008E
:102E700000F28110E06002E0E3685B00E360124D65
:102E8000124B2E681B6804F108002B6009F081FECC
:102E90002E60BDE8F081E66A618D3846D4F8308056
:102EA00000F04AF82046FFF7B1FF56B129464046E8
:102EB0003346BDE8F04118472046BDE8F041FFF732
:102EC000A5BFBDE8F08100BF7C4A0020CC430020B4
:102ED00010B50446044809F0A4FE20B18388A3423B
:102EE00001D00068F9E710BDC843002010B50948BB
:102EF00009F097FE044664B104F1080009F052FE9F
:102F000028B1237E204601332376FFF795FF2468FE
:102F1000F1E710BDC843002010B50446014604483F
:102F200009F0DFFE2146BDE81040024809F083BEEB
:102F300060400020E0480020F8B506460C480F46E7
:102F400009F06FFE044600257CB11022314604F1E1
:102F5000180009F03DFA30B9238DBB4203D1204659
:102F6000FFF7DAFF01352468EEE72846F8BD00BF19
:102F7000E04800202DE9F04106460F480F469046F4
:102F800009F04FFE0446002594B11022314604F1A9
:102F9000180009F01DFA48B9238DBB4206D1A38E53
:102FA000434503D12046FFF7B7FF01352468EBE71F
:102FB0002846BDE8F08100BFE04800202DE9F74F2A
:102FC0000C9F8B4690461E4600F0D0F909F029FE72
:102FD000002481462546B9F1000F78D04DB13B68F9
:102FE0009D4205D3B4423EBF2C2308F8043001347F
:102FF00001353B689D4205D3B4423EBF3C2308F8EF
:10300000043001343A686B1C934205D3B4423EBF8E
:103010002F2308F804300134D9F80430023518465B
:10302000019309F02FFB3A6805EB000A9245019BDA
:103030000DD9521B711C002AA8BF9B18091B08EB55
:103040000400344A09F07BFD0444A6423FD93B68A2
:103050009A4505D3B4423EBF3E2308F804300134FC
:10306000D9F80C300AF1010543B31B7833B33B6840
:103070009D4205D3B4423EBF3B2308F804300134DF
:10308000D9F80C300AF1020A1846019309F0FAFA4D
:103090003A680AEB00059542019B0FD9CAEB020A78
:1030A000711CBAF1000FA8BF5344091B08EB0400C0
:1030B000184A09F044FD0444A64209D3B44203D996
:1030C0003A682B1B934203D8D9F8009083E74CB1A0
:1030D00041462246584609F060FC2821584609F02E
:1030E000FEFB09E045B18221584609F0E7FB0F22BB
:1030F0000949584609F051FCB9F1000F03D14FF0CE
:10310000FF333B6002E03B681E443E6003B0BDE815
:10311000F08F00BFC4E320007FE3200038B50C46E9
:10312000054620B90E4809F0A7FC042038BD0D481B
:1031300009F0A2FCAB79413B3E2B04D90A4809F0C7
:103140009BFC032038BDEB7C5B0604D4074809F0E8
:1031500093FC022038BDB4FA84F0400938BD00BFAA
:10316000CDE32000D9E32000E8E32000FCE32000C9
:103170002DE9F0410A4D0B4C0E4617460146002240
:10318000284609F08EFB21682846FFF7BBF8226825
:1031900083B239463046BDE8F041FFF725BA00BF9B
:1031A000E8480020246A002070B505460C480E4609
:1031B00009F037FD044684B16A782978094801F09E
:1031C00091FD237FB34206D13246294604F11D000A
:1031D00009F0FEF808B12468EDE7204670BD00BF95
:1031E000E44800206CE42000F7B514460646224867
:1031F0000F4609F041FCA57A204809F03DFC0DB9C5
:103200001F482DE01F4809F037FC294604F10B0048
:10321000FFF7CAFF054648B91B4809F02DFC238972
:103220003A4631460320FFF7A3FF22E063792BB92A
:1032300023893A4631460220FFF79AFFEB6AC3B171
:1032400000212046FFF76AFF012806460CD101A99C
:10325000204609F05BFB019B2A6B9A4203D10B4885
:1032600009F00AFC05E02B63EB6A3246214628464A
:10327000984703B0F0BD00BFE7E4200002E520005E
:1032800010E5200054E520006AE52000B2E52000AA
:1032900070B502880546C82A09D0D82A21D082B93B
:1032A0001B4B8521186802F02FFBC82307E08529F6
:1032B0000BD1184809F0B5FC044644B9D8232B803B
:1032C00003E000230380032070BD012070BDE3698B
:1032D0002BB1A16819B104F10C0009F048FC246875
:1032E000EBE78829EAD10B4809F09BFC0446002C47
:1032F000E4D0A36853B104F10C06304609F052FC47
:1033000020B1E3699847304609F03AFC2468EEE7BB
:103310007C4A00208C490020F8B5044641600146F3
:103320000E4809F09BFC94F90830002B15DA216A4D
:10333000CB6993B18B6883B1094E0A4809F08EFCC2
:10334000304609F03DFC40B1074D206A2F68816886
:103350000C302E6009F00BFC2F60F8BD9049002066
:10336000904000208C4900207C4A00200048704793
:1033700090490020F7B500F0E3FD00F09DFE00F05D
:10338000F9FD00F0EDFB01F0F5FA09F01EFC00F08C
:103390008BFE00F0C7F8012009F00CFB02F050FA98
:1033A00000F0BAFD002000F0D5FC012000F0D2FCB6
:1033B0004849002000F09AFD02F098FB62B6042014
:1033C00009F0F8FA444809F057FB444809F054FB67
:1033D00000F068FB002002F0ABFB01F0B5F9002122
:1033E0003F4802F0B9FA02F05FF809F013FB00F071
:1033F00091FF00F0ADFF06F015FD0821684601F0D1
:10340000DFFA9DF807309DF80670364C43EA07272F
:103410006B4603CB20606160334801F063FC0025FC
:10342000615D3248013501F05DFC072D2D4EF7D16D
:103430002F4DF1792F4801F055FCEC6A4AF6CD3159
:103440000220A04739460320A0471A210120A047A7
:10345000694608226B6B0B209847274801F042FC15
:10346000264B186809F008FB254801F03BFC254B6A
:10347000186809F001FB244801F034FC234B18685C
:1034800009F0FAFA224A336813607368536006F051
:1034900003FE00211F4802F05FFA00211E4802F0DF
:1034A0005BFA1E4B01219B688120984709F05EFB67
:1034B0001B4809F051FB00F035FD022009F07AFAB3
:1034C00000F036FD02F0D4F910F0FF0FF8D101F052
:1034D000E5F9F5E7A95A200028E6200042E6200099
:1034E000D8400020F76C002067E6200085E6200029
:1034F00090E120008BE6200091E6200008E120000A
:1035000098E6200014E120009FE620003CE1200026
:10351000106900206C410020F840002040E02000AD
:10352000C8E1200008B500F05DFA024B00221A70D5
:1035300008BD00BF1C5F0020024A137818431070BA
:1035400000F074BA1C5F0020034A137823EA0000DD
:10355000107000F06BBA00BF1C5F0020034B00220C
:103560001A60034A1368002BFCD1704780A00D40FD
:1035700020A00D40014BFF221A60704780A00D4033
:10358000064B186006480268054912F0100FFAD180
:103590000A685207FCD51868C0B27047088000401E
:1035A0000C800040F0B510B9002936D100E00AB90E
:1035B0000120F0BD29B1234C234D002326462F4680
:1035C00024E0204C204D03462746AE461E1A964264
:1035D00001DB0020F0BD21602E68F606FCD4DEF889
:1035E00000607607FBD53E6803F8016BEEE7D5F87F
:1035F00000E01EF0100FFAD1D7F800E01EF0040F23
:10360000FAD0D6F800E000F803E001339342E0DAA4
:1036100011F803E0C4F800E0E9E7002AC8D0094C3B
:1036200009480B46264605465F1ABA42D1DD13F813
:10363000017B27600768FF06FCD42F687F07FCD555
:103640003768F1E7088000400C80004008B51A4A4E
:10365000136823F01003136052F8203C23F010038A
:1036600042F8203C52F81C3C23F0100342F81C3C6A
:1036700052F8183C23F0100342F8183C0F4B1A681C
:1036800010B142F0100201E022F010021A600C4A60
:103690000120136843F0100313600422114600F068
:1036A00019FD084B02221A60012104220648BDE8D8
:1036B000084000F0B1BC00BF20A40D400CA40D4098
:1036C00010A40D4000E100E00DCA200008B5074A33
:1036D0000120136843F0100313600422114600F028
:1036E000F9FC034B02221A6008BD00BF10A40D4074
:1036F00000E100E0024A136823F0100313607047F2
:1037000010A40D40024B1868003018BF012070470C
:1037100040A00D4010B51B4A07211368022023F07A
:103720008003136052F8203CFF2443F0800342F8EA
:10373000203C082200F0CEFC134B05211C60012028
:1037400000F05EFD002000F0E5FC104A136823F055
:10375000100313600E4B1968A3F5607321F010017C
:10376000C3F88013116821F001011160D3F88023A0
:1037700022F00102C3F88023064A1C601368002B64
:10378000FCD010BD20B40D4000B20D4020A40D406F
:1037900000A40D4020A00D4008B50B4B1B78034240
:1037A00003D0202804D0042804D04FF0004008BDE6
:1037B000052000E00220054B80211A7800F044FD2E
:1037C00020EAE07000B208BD1E5F00201D5F0020EF
:1037D000802810B50C4603D0B0F5807F25D031E0AD
:1037E0008B1E222B2ED8C943184B1A680A401A6028
:1037F000174A13680B401360A20604D50122052165
:10380000002000F067FC630704D50122022100209C
:1038100000F060FC00F010FD0E4B30221A700E4BD1
:10382000187804441C70002010BDC8B2102806D0BF
:1038300001D820B106E0202801D0302802D1054B64
:10384000187010BD4FF0004010BD00BF20940D4017
:1038500000940D401D5F00201E5F002020B1012854
:1038600005D1044B18787047034B18687047002047
:10387000704700BF1F5F002020900D4010B5094A1F
:103880000020137801331370074B197802F03CF8CD
:10389000BDE8104005490023054A0968054801F0C4
:1038A00039BE00BF1F5F0020EE6C0020BC49002025
:1038B0007D38200094490020812808B52AD0B0F531
:1038C000807F39D0802839D101F0B2FF1C4B1D4ACE
:1038D00018701368032123F00803136052F8203C8A
:1038E000002023F0080342F8203C52F81C3C23F04F
:1038F000080342F81C3C52F8183C43F0080342F815
:10390000183C042200F0E6FB032200210E4800F0E0
:1039100083FB13E00D4B0E481A6829B142F00802F0
:103920001A600123036005E022F008021A600123F7
:10393000C0F88030084608BD064B1960012008BD5C
:10394000EE6C002020940D405939200010940D4059
:1039500000E100E0BC49002008B50F4809F050F92B
:10396000C8B108210C4809F039F90C4B196869B144
:103970000B4B00221A700B4B1B6823B90A4A0B48E9
:1039800001F0C8FD02E0094801F006FEBDE808406C
:10399000074802F079B908BDB4490020BC490020AD
:1039A0001F5F002020900D407D38200094490020AA
:1039B00040E02000084A136823F00403136052F823
:1039C000203C43F0040342F8203C044B04221A60DC
:1039D000034B01221A70704720C40D4010C00D40E7
:1039E000205F00200D4A0E49136823F0C0031360C6
:1039F00052F8203C43F0C00342F8203C094B00221F
:103A00001A600B6823F010030B6051F8203C43F060
:103A1000100341F8203C044B1A60704720A40D406D
:103A200020C40D4000A30D4040C00D4000F0020234
:103A300002F0FF010B4B12B1FF221A6000E0196087
:103A400000F0040202F0FF01074B12B1FF221A60DE
:103A500000E0196010F00100044B1ABFFF221A6049
:103A60001860704700A20D4000A10D4040C00D40FD
:103A7000044B1868C0F30720030904BF1030C0B21C
:103A8000704700BF1C300D40054B1868C0F3C210D2
:103A900001289ABFC0F1020040034FF40040704774
:103AA00014300D402DE9F04788B0FFF7E1FF174BC8
:103AB00048251C68AB68074698476B68804698475E
:103AC0000546FFF7E1FF064600F08EFA814600F05A
:103AD00097FA824600F044FAB60A04F00103AD0AF0
:103AE000C4F3400406900393CDF814A0CDF81090D1
:103AF00002940196009507F00F03C7F307124146A1
:103B0000034801F0EFF808B0BDE8F0871C300D4025
:103B1000C2E62000F8B500F081F80F4B0024D3E98D
:103B200000673A46B04238BF7A1C15460443C3E9E1
:103B30000045DFF828E0DEE90001821B61EB0703A6
:103B400012196B41CEE9002301F0DAFD18B1BDE88E
:103B5000F84001F059BDF8BD6042002068420020E5
:103B60000D4B0E4AE0215A600D4A82F823100022C4
:103B700007219A6019600B490B6843F001030B6041
:103B8000094B1A60042243F80C2C012243F8082C3C
:103B90000F22DA62704700BF10E000E047E8010042
:103BA00000ED00E008200D400C000340034BD3E97A
:103BB0000023100A40EA0360704700BF6042002003
:103BC000034BD3E90023D00B40EA4340704700BFCA
:103BD00068420020054B18601C3B1A6842F0010245
:103BE0001A601A68D207FCD4704700BF280003404F
:103BF00010B5064C236823F001032360FFF78AFF0A
:103C0000236843F00103236010BD00BF10E000E013
:103C1000014B1868704700BFC0490020074B084A95
:103C2000196804331B681268120442EA0323054A28
:103C30000B43106843EA0060704700BF40500D40DE
:103C400048500D404C500D4010B50446104A1368C2
:103C5000DB07FCD572B6FFF7E1FF231A062BD8BFAE
:103C6000C41D0C4B220E1A60C4F3074243F8042C07
:103C7000C4F3072243F8082CE2B243F80C2C62B6D6
:103C8000054B4FF400321C60044B1A6110BD00BF9D
:103C900050500D404C500D40C049002000E100E064
:103CA00008B500F0DFFD074B00221A60064B4FF409
:103CB0000032C3F89021C3F89020BDE8084001F01D
:103CC00081BE00BFC049002000E100E0064B1B6838
:103CD0001B075FBF054B186880F00800C0F3C000E9
:103CE00048BF0020704700BF18C0004018D00040F7
:103CF000164A2C2303FB00234FF6BF7270B5DC6815
:103D00000546236C62649BB213F050020DD0104E36
:103D1000A369DB0608D456F825301BB12068C0B271
:103D20009847F5E72368F3E770BD13F4D06F0BD025
:103D30004FF440732363FF236360E36AE262E3624C
:103D4000236B43F00103236370BD00BF50E02000EC
:103D5000C449002001282DE9F74F064600F2B6803D
:103D60002C2545435B4F7C1994F92080B8F1000F56
:103D7000C0F2AC8094F92290B9F1000FC0F2A68095
:103D8000554800F0E5FD554A7B591168E5680B433D
:103D900013605168636894F921A00B4353609168E4
:103DA000A3685FFA89FB0B4393600023C5F8C83F03
:103DB00023690AEBC8021A6094F92330227D00932C
:103DC0009DF8003058461946019300F08DF9019B8B
:103DD00008221946584600F07DF9414A4FEA093950
:103DE000009959F80200012303FA01F1014349F84F
:103DF00002104FEA083858F8020003FA0AF10143AA
:103E000048F802105021A963A96B94F9240041F4E9
:103E1000D061A963022169634FF440712963A169EC
:103E200000286962E169A9624FF07001E9621546F4
:103E300016DB94F92510A2F5A64241EAC0041C3A0B
:103E40001460040362598B40134363510022C9B2CA
:103E5000C0B200F03FF9234A136843F400431360F3
:103E60002C2303FB067393F92640002C1BDB93F9EC
:103E700027A05FFA84F85FFA8AF901224946404692
:103E8000240300F031F96259012303FA0AF31343C2
:103E9000635108224946404600F01CF9114A136854
:103EA00043F4804313602C2303FB0676F268136B04
:103EB00043F00103136396F828300122590903F0F7
:103EC0001F0302FA03F3084A42F8213003B0BDE8A9
:103ED000F08F00BF50E02000CD3C200028200D4096
:103EE00020940D4030D0004000E100E001289CBF4C
:103EF000014B43F820107047C4490020012808D81E
:103F0000044B2C2202FB0030C3689A699206FCD451
:103F10001960704750E02000014B00221A60704782
:103F200000500D40014B08221A60704700500D40B0
:103F3000024BA0221A6050221A60704700500D40B8
:103F4000014B024A9A60704700ED00E0002020001B
:103F5000024B1868C0F38150704700BF04200D4029
:103F600008B5FFF7F5FF024B53F8200008BD00BF6E
:103F7000A8E0200038B5164D164C2B68012223F01E
:103F800040032B602368062123F0400323600320B5
:103F900000F0A0F82B68012223F080032B60236837
:103FA000072123F080032360032000F093F80A4ADE
:103FB0000A4B0B491A600A680A4B1340084A002B47
:103FC000F9D113685901FCD413685B01FCD538BDE5
:103FD00020C40D4000C40D400101020000200D402E
:103FE00004200D4000000101034B04481B6803F04E
:103FF00007031841704700BF04200D400048E80146
:10400000034B04481B68C3F302231841704700BFE9
:1040100004200D400048E801024B02EBC10243F8C6
:1040200022007047CC490020F8B507460E46094DDE
:10403000002405EB411547FA04F3DB07E1B204D590
:1040400055F824300BB1304698470134082CF2D192
:10405000F8BD00BFCC4900202DE9F04780464FEA6B
:104060000837DFF8409007F1804505F5592500F045
:10407000F9FBD5F8186457F809304FEAC80A23FA53
:104080000AF446EA0400E4B24146C0B2F6B204FAC9
:104090000AF4FFF7C9FFC5F81C6447F80940BDE8FA
:1040A000F08700BF18970D4080220021014808F0DA
:1040B0009BBA00BFCC490020034A044B1A60044B52
:1040C000803A1A60704700BF80400D40504A00207F
:1040D0004C4A0020034B01EBC0011B6843F8212030
:1040E000704700BF504A0020034B01EBC0011B6822
:1040F00043F82120704700BF4C4A0020012806D811
:10410000034901220B6802FA00F018430860704767
:1041100018200D402DE9F04F012887B0054667D8DB
:1041200018235D43344F7C1994F91160002E5FDB36
:10413000FFF7E4FF94F912807D595FFA88F30027B6
:104140005FFA86FB19466F60227A5846C5F8C87F29
:104150000593FFF7C9FF94F91330227B01939DF873
:1041600004303603029394F91430029803939DF8B7
:104170000C3019460493FFF7B7FF94F9159094F9A2
:1041800016A062680AEBC90111601C4A0121B058EF
:10419000019B01FA08F848EA0000B0501E03039B97
:1041A00056F802E001FA03F040EA0E00B0504FEA80
:1041B00009308658059B01FA0AF1314381501946AE
:1041C0003A465846FFF786FF3A4604990298FFF7A9
:1041D00081FF3A465FFA8AF15FFA89F0FFF77AFFCA
:1041E000237C2B61C7232B606B6843F002036B6059
:1041F00007B0BDE8F08F00BFB8E0200020940D406C
:1042000038B50B4A0403A35801258D4023EA050362
:10421000A3500022FFF75EFF064AA3582B43A3508A
:1042200004F1804404F55924FF2344F8253038BDB7
:1042300020940D4000940D40024A136843F030036F
:104240001360704700700D400E2870B50BD1154BF0
:10425000154E1C6844F002051D60356825F03F03CB
:1042600043F001033360114E336823F0FF031A4318
:10427000114301430E4A316013681B06FCD50D4BF8
:104280000D4A1B6812680E2803F0FC0343EA022360
:1042900008BF054A1BB204BF1560024A184608BF92
:1042A000146070BD34000144F486084008700D406D
:1042B00000700D400C700D4010700D40024B1868DE
:1042C000B0FA80F04009704700B7084010B5074BBE
:1042D0004FF40042064CC3F89021C3F890202068A8
:1042E00018B101F051FB0023236010BD00E100E094
:1042F000544A0020064A136843F0020313605368CF
:1043000043F002035360936843F0020393607047E5
:1043100048200D4007B50C4800F01AFBFFF7EAFFF4
:104320000A4B1A6842F002021A6000220192019AB6
:104330000F2A02DC019A0132F8E71A6822F0020221
:104340001A6003B05DF804FBBD42200054200D400C
:10435000064A136823F002031360536823F0020334
:104360005360936823F002039360704748200D4028
:10437000084B93F90020002A09DB074AED21116060
:104380001160E32111601A7862F07F021A70012037
:10439000704700BF245F0020388808400C4A13682B
:1043A0009907FCD40A4B1B685B065FBF094BED22E3
:1043B0001A601A60084B1B6813B1064BEF221A6093
:1043C000064A0120137803F07F031370704700BF83
:1043D0004C860840388808402C860840245F00201E
:1043E00038B5A0F10B04E3B20F2B054613D80B4BE5
:1043F0001B6813F03F0302D0FFF7D0FF012304EB4B
:104400008404074A0B3414600BB1FFF7B1FF054B6E
:1044100068B21D7038BD4FF0FF3038BD4886084087
:104420003C8608405E420020214B1870002834D0A2
:10443000204A13681B03FCD51F4B1A6842F0020286
:104440001A601A6842F001021A601A681A49500785
:10445000FBD50A6822F001020A601968164A49076A
:10446000FBD4116841F002011160116841F00101B3
:1044700011601A685207FCD5104A136823F0040330
:104480001360D2F8A83123F00403C2F8A8310C4B12
:104490004FF40052C3F890207047084A136843F065
:1044A00004031360064B4FF400521A61704700BFBB
:1044B000235F002004200D40048808408C860840BB
:1044C00000E100E070B52F4D2B6813F0400308D0D9
:1044D0002D4E3368DCB21B0605D52C4BED221A603D
:1044E0001A60002070BD042CF7D9023C8C42F4DC29
:1044F000E4B2032C21D001190139032000F046F960
:10450000631E23491B011943032000F049F90320CE
:1045100000F050F9032000F065F9032000F06EF977
:104520000028FAD131681B4B493949B219703368F8
:10453000194E18063370D0D506E03368037033681F
:10454000437033688370EDE789B2042005F07AFD8B
:104550003178032001F07F0105F074FD0F4B1B78CB
:1045600073B92B685A060BD5064B1B681B0603D57F
:104570000B4801F009FA03E0044BED221A601A60BF
:10458000204670BD4C86084028880840388808407E
:1045900002C0010C225F0020215F0020235F002069
:1045A000B0400020F8B5294F3D7815F001054BD1FA
:1045B000274B01241C605C609C60A3F59323A3F54A
:1045C0001473F8221A600922C3F89021152270335F
:1045D0001A6003F59B230B2203F59E731A60A3F563
:1045E0009B23A3F5F07340221A601A687F2642F0DD
:1045F00020021A60D52243F81C5CDE62DA61154B9A
:104600001878FFF7EDFE144B4FF480421E60134BF9
:1046100002201A6100F0DAF81149022000F0B6F821
:10462000032000F0D3F80E49032000F0A7F80D4B4B
:104630001878FFF7F9FE29460B4801F08DF93B7811
:10464000204623433B70F8BD0020F8BD245F0020C6
:10465000A8200D405E4200209486084000E100E062
:1046600028880840235F0020B040002038B5038828
:104670000446CBB140F20342934203D000230380AF
:10468000032038BD194B18781A4628B11B7873B12E
:10469000174B1B7858060AD5822908D1137843B1E5
:1046A000134B1A78520614D440F20343238001209E
:1046B00038BD05F06DFC05F001FC8021FFF702FF1D
:1046C0000028EDDD80B205F0DDFB0A4B1B69984741
:1046D000E6E700221A70084B1D68FFF75FFEFFF740
:1046E00061FFAB06E0D0FFF743FEDDE7235F00206C
:1046F000245F00203CE120004886084008B5054BB7
:104700001B7813B9044801F03FF9044B00221A60EA
:1047100008BD00BF235F0020B0400020348808405F
:10472000064B07481A68042A1FBF06490A7842F058
:1047300040020A7000221A6001F026B92C88084055
:10474000B0400020245F002010B5094C4022002119
:10475000204607F049FF074B01221A605C60064BB8
:104760004FF480425A604FF400425A6010BD00BFBF
:104770000040002004F00F4000E100E003289EBF4D
:10478000014B0001195070470040002003289EBFD4
:10479000024B03EB00104160704700BF0040002057
:1047A00003289EBF024B03EB00108160704700BFDF
:1047B00000400020032806D8034901220B6802FAB2
:1047C00000F018430860704728F00F40032806D80F
:1047D000034901220B6802FA00F018430860704791
:1047E00020F00F40032806D8034901220B6802FA83
:1047F00000F018430860704714F00F4003289FBF73
:10480000044B03EB0010806800F0070088BF002015
:10481000704700BF00400020024B4FF0FF321A608B
:10482000704700BF04F50F40014B01221A6070472A
:104830004CF00F40094A1368084913F4801FFAD15D
:10484000074B1A6822F480321A600A68D203FCD43B
:104850001A6842F400321A60704700BF04200D400D
:1048600000200D4010B50B4B1A681C4612F0030FC8
:104870000ED009490B68084A13F0806FFAD113680B
:104880005B01FCD5FFF7B4F9FFF7D4FF00232360E9
:1048900010BD00BF58200D4004200D4038B5264BF8
:1048A0001C6814F03F0413D1244D55F8243023B173
:1048B000984768B10134052CF7D1214D2B783BB1D5
:1048C000FFF7A6F90446FFF7A9F9201A092801D82D
:1048D00030BF38BD002CFBD01A4B1B481A6822F49D
:1048E00000321A600268184912F4801FFAD11A685F
:1048F00042F480321A600B68DB03FCD5FFF78EF9B7
:10490000201A092803D8BDE83840FFF793BF632871
:104910000E4C02D92B78022B00D00123236000F02B
:10492000E9FF20B1FFF786FF0023236038BDFFF7C2
:104930006FF90028CCD1F5E748860840584A002096
:10494000255F002000200D4004200D4058200D4020
:104950000749002351F82320824207D01AB9044A9C
:1049600042F8230070470133052BF3D1704700BF95
:10497000584A0020054B00221A60054A136943F08B
:1049800004031361034B02221A70704758200D4034
:1049900000ED00E0255F002010B5074B4FF480329A
:1049A000064CC3F89021C3F89020206818B100F09D
:1049B000EBFF0023236010BD00E100E06C4A002003
:1049C00030B5184B1A78431E22B101F5201127315A
:1049D000154A1FE0154A1278122AF6D1144A1278A5
:1049E0004B2AF2D14A0802F12814B4F1281F04D04E
:1049F00014F8015D03F8015FF7E701F52011273195
:104A000000231044934204DA11F80149C4540133DD
:104A1000F8E730BD914204D011F8010903F8010F05
:104A2000F8E730BD2B002800270028002A002800C6
:104A300029002800024A136843F0100313607047EE
:104A40002000024014235843034B044A0344B3FBA1
:104A5000F0F3013B13607047FF23F4000C000240A9
:104A60002DE9F84306460F4614461D462A4ADFF84C
:104A7000B4901368DDF8208043F001031360D9F887
:104A80000030322043F00103C9F80030FFF7A2F8EC
:104A9000D9F80030214A23F00103C9F8003030036F
:104AA0008158012303FA07F921EA09018150210302
:104AB00051F802C0AB402CEA030C41F802C020328E
:104AC00050F802E049EA0E0E40F802E0885803432D
:104AD0008B50304639460022FFF7FCFA2946204623
:104AE0000022FFF7F7FA0E4B47EAC6021A6045EAC2
:104AF000C4025A60394630460B22FFF7F5FA2046C9
:104B000029460C22FFF7F0FAFFF794FF4046BDE874
:104B1000F843FFF797BF00BF38200D4000940D40C9
:104B20002C410D4044200D40024B18600120FFF73E
:104B300051B800BF04000240054B1868C0B2C3075B
:104B400004D410F0120F08BF0020704700207047F7
:104B50000400024008B5074B400018609960072028
:104B6000FFF7E2FF044A1368DB07FCD4BDE8084006
:104B7000FFF7E2BF00000240040002400A4B400081
:104B800040F0010010B5186007200C46FFF7CCFF7D
:104B9000064A1368DB07FCD4FFF7CEFF10B9044BBD
:104BA0001B68237010BD00BF0000024004000240DB
:104BB000080002402DE9F8430F461446002A3CD075
:104BC00000293AD0012A04D1BDE8F8430978FFF75B
:104BD000C1BF1B4A430013600B781A4E0320336099
:104BE000FFF7A2FF184A1368DFF85C8013F0010F8B
:104BF000F9D1FFF7A1FF70B9012504F1FF3914E0E5
:104C00003C4414F8013C05203360FFF78DFFD8F8D1
:104C10000030DB07FBD4BDE8F843FFF78DBFD8F8C1
:104C20000030DA07FBD40135EDB2A945E8DD7B5D44
:104C300001203360FFF778FFF1E78020BDE8F883BB
:104C40000000024008000240040002402DE9F84341
:104C50000F461446002A3CD000293AD0012A03D13D
:104C6000BDE8F843FFF78ABF1B4A430043F0010346
:104C700013600B20FFF758FF184A1368DFF85C80B9
:104C800013F0010FF9D1FFF757FFF0B9144E0125CA
:104C9000336804F1FF393B70A9450BDD0920FFF7AC
:104CA00043FFD8F80030DA07FBD433687B55013571
:104CB000EDB2F1E70520FFF737FFD8F80030DB074A
:104CC000FBD433683C4404F8013CBDE8F843FFF7EB
:104CD00033BF8020BDE8F88300000240040002409A
:104CE000080002400FB407B504AA52F8041B044898
:104CF000019200F035F803B05DF804EB04B07047A2
:104D0000C04000201FB51446074A8DE803000292F8
:104D100021461A4602A8CDF80CD000F021F8009BDD
:104D200000221A7004B010BD17CB200070B50546E4
:104D30000C46102C07D92B68102208496868984740
:104D400050B9103CF5E734B12B6822466868034936
:104D5000BDE870401847204670BD00BFE0E7200066
:104D60002DE9F04F064615468FB006914FF0000B27
:104D7000069B1B78CBB1069C274617F8013B1BB15D
:104D8000252B14D03C46F7E7069BA3420DD0069B8B
:104D90000699C3EB040842463368706898470028B8
:104DA00040F01F832378C34423B9584634E3069B5D
:104DB000A342ECD16378002BF7D039460024084693
:104DC00010F8013B0A462B2B11D006D8202B11D00E
:104DD000232B12D144F0080416E02D2B04D0302BE5
:104DE0000BD144F010040FE044F001040CE044F057
:104DF000060409E044F0020406E0A3F13107082F9D
:104E000011D84FF0000801E00146D8E70A4611F832
:104E1000013BA3F13000092813D80A2202FB08380D
:104E2000A8F13008F2E72A2B09D12B680246002BA3
:104E300005F10405B8BF44F00104984601E04FF0C5
:104E4000000813782E2B1AD15178531CA1F1300091
:104E500009280ED8194600270A780B46A2F130001F
:104E6000092801F101010DD80A2303FB0727303F70
:104E7000F2E72A2904D12F68931C043502E0134677
:104E80004FF0FF371A786C2A09D15A786C2A02D170
:104E900044F080040AE0013344F060040BE0682A27
:104EA00009D15A78682A03D144F02004023302E081
:104EB000013344F040041A78642A3CD01FD8462AB3
:104EC00048D00DD8252A5AD003D8002A3FF46DAF18
:104ED00057E0412A4AD0452A53D144F4424450E095
:104EE000582A31D004D8472A4BD144F4A13448E0A1
:104EF000612A38D0632A44D144F4A06441E06E2A88
:104F00003AD007D8662A22D027D3672A28D0692A20
:104F100011D036E0732A2CD006D86F2A11D0702A0F
:104F20002FD144F440742CE0752A07D0782A28D178
:104F300044F4C85425E044F4245422E044F41064BA
:104F40001FE044F488541CE044F4B24419E044F4F3
:104F5000007416E044F4844413E044F4024410E086
:104F600044F481340DE044F4C1340AE044F4E13403
:104F700007E044F4806404E044F4E06401E044F4B5
:104F8000C0640133069304F4E063B3F5806F00F06E
:104F90008F8113D8B3F5807F27D0B3F5407F7FF49E
:104FA000E7AEAE4B14F4804FAD4A18BF1A460DF170
:104FB00033032868002104351F46B5E1B3F5C06FFF
:104FC00008D0B3F5E06F00F02282B3F5A06F7FF454
:104FD000CFAEF2E133680122A249706898470028F9
:104FE00040F0FF810BF1010BC2E6002FACBF24F0B3
:104FF0001004012714F40053079304F0E0032ED0AB
:10500000402B12D005D8ABB1202B21D195F900202F
:105010000DE0602B0ED0802B1AD1073525F0070349
:1050200003F10805D3E9002307E0B5F90020D31701
:10503000043502E02A680435D317002A73F1000111
:1050400008DA524263EB4303CDE90023012304E075
:1050500000220023CDE900230023059329E0402B03
:1050600013D004D8BBB1202B1DD12A780EE0602BC1
:1050700011D0802B17D1073525F0070303F1080560
:10508000D3E90023CDE900230BE02A880023CDE9F2
:105090000023043505E02B6800221946CDE90012F3
:1050A0000435079BD9E70023059300220023CDE9AF
:1050B000002304F4C053B3F5805F0CD0B3F5C05F98
:1050C00033D0B3F5006F4FD1DDE900230DF1360980
:1050D000CDE9022304E0DDE900230DF1360915E0F6
:1050E000DDE9022313433AD0DDE902010A2200235D
:1050F00006F0DEFFDDE90201303209F8012D002360
:105100000A2206F0D5FFCDE90201E9E752EA0301E0
:1051100025D002F00701303109F8011DD10841EA1C
:105120004371D8080A460346F0E74C4B14F4804F0D
:105130000DF136094A4918BF1946DDE9002352EA44
:1051400003000CD002F00F00085C4FEA131E09F8B0
:10515000010D100940EA037002467346EFE70DF1B6
:105160003603C9EB030302E00DF136090023029375
:10517000029B41F60802BB4238BFFF1A41F2080306
:1051800002EA040228BF00279A4202D1002F08BF7A
:10519000012741F60801029B8A4203EB07000DD16B
:1051A000DDE90023134309D02F4A304914F4804F1E
:1051B0004FF0020A0CBF0B46134602E04FF0000A04
:1051C0005346079A9AB1059A52B904F00602022A88
:1051D0000AD0062A264A04BF4FF0010A134606E009
:1051E0004FF0010A234B02E0234B4FF0010A0AEB78
:1051F000000290458CBFC2EB08084FF0000814F085
:10520000010200920DD1E10602D54744904608E024
:10521000414630460593FFF789FD059B002840F085
:10522000E080BAF1000F07D0346852461946706822
:10523000A047002840F0D580029B03EB0B04BB463F
:10524000BBF1100F33681BD910220C4970689847C6
:10525000002840F0C680ABF1100BF1E7ADE720006D
:10526000BEE72000DEE72000D2E72000CFE72000E5
:10527000D5E720003BEA20006AE42000F0E72000A8
:10528000BBF1000F06D05A46654970689847002860
:1052900040F0A7803368029A4946706854449847A2
:1052A000002840F09E80009B3C44002B39D032E027
:1052B000D5F800900435B9F1000F0AD0CA469AF823
:1052C00000300AF101020BB19246F8E7C9EB0A0A75
:1052D00003E0DFF850914FF0060A002F02DBBA45D9
:1052E00028BFBA46D0458CBFCAEB08084FF000086B
:1052F00014F0010705D141463046FFF717FD00289D
:105300006FD133685246494670689847002868D183
:105310000AEB0B042FB141463046FFF707FD00288A
:105320005FD108EB040B23E550EA010E0ED000F02C
:105330000F0E12F80EE04FEA111C03F801ED4FEAD0
:10534000101E4EEA017E70466146EDE7FF1A02BF6D
:105350003022012703F8012C07F1030708BF03F1EE
:10536000FF337822B84503F8012C4FF0300203F8E0
:10537000022C88BFC7EB08084FF0230298BF4FF0FC
:10538000000814F00104A3F1030903F8032C04D16D
:1053900041463046FFF7CAFC18BB33683A464946D7
:1053A00070689847E8B95F4424B141463046FFF73A
:1053B000BDFCB0B908EB070BDAE4B8F1010F2B68BC
:1053C0008CBF08F1FF384FF0000814F0010405F11C
:1053D00004058DF8203008D141463046FFF7A6FC81
:1053E00010B14FF0FF3017E0C3443368012208A921
:1053F000706898470028F4D108F101072CB14146A4
:105400003046FFF793FC0028EBD1BB44B0E42B6897
:105410000435C3F800B0ABE40FB0BDE8F08F00BFB7
:10542000F0E72000D7E72000F8B5038806461546C8
:105430002BB14A2B15D0002303800320F8BD174859
:1054400007F0EFFB04462CB1A168201D07F08FFB8D
:105450002468F8E7124B01221A704A233380012096
:10546000F8BD8829FBD10D4807F0DBFB0446002C72
:10547000F3D0231D9D420ED12146084807F0DBFBE7
:10548000084B62691F681A60A2691D460AB1E0698B
:1054900090472F60E1E72468E9E700BF704A0020E9
:1054A000265F00207C4A002010B5064B00240648E9
:1054B0001C7007F0B3FB2146BDE81040034800F024
:1054C0004BBA00BF265F0020704A0020C840002071
:1054D00070B50446E3610B4B049D1B786561A261C6
:1054E00043B1094D094B2E68201D2B6007F03FFB8F
:1054F0002E6000E0A1602146BDE87040044807F03E
:10550000ADBB00BF265F00207C4A0020C8400020C1
:10551000704A002013B5034C24680094FFF7D8FFAD
:1055200002B010BD7C4A002070B5094B05461B78BF
:105530003BB1084C084B26680430236007F020FB81
:1055400026602946BDE87040044807F087BB00BFCD
:10555000265F00207C4A0020C8400020704A0020BE
:1055600070B5094B05461B783BB1084C084B2668C3
:105570000430236007F00DFB26602946BDE870402B
:10558000044807F06BBB00BF265F00207C4A002068
:10559000C8400020704A002010B5084B04461B7814
:1055A0001BB1043000F0B4F801E0C3600361214690
:1055B000BDE81040024807F03EBB00BF265F002058
:1055C000704A002010B50E4C236813B90D4A1360C1
:1055D00010BDFEF7EBFA216891E80C001A44131A8B
:1055E0008A6842B192E812002144091A8B4228BF0E
:1055F0000B469268F5E71844024B186010BD00BFD7
:10560000744A0020784A0020014800F0BDB900BF6C
:10561000D84000202DE9F8430388054633B1592BC3
:105620000BD0002303800320BDE8F883234A1360D6
:1056300059232B800120BDE8F883872924D08229B3
:10564000F6D11E4F4FF00008B9463C680026002CEA
:10565000EED0204607F0D4FA98B122468821E068BF
:1056600000F052F958B9E060A3680EB1B36001E0F0
:10567000C9F80030C4F80880FFF7A4FFE5E7FFF79A
:10568000C3FF2646A468E2E70C4900200B681BB95B
:105690000028CDD00B60CBE7DC68A24202D19B682A
:1056A0000120F4E700B10B6099680029C0D0C868F8
:1056B00082420ABF89680B469960F5E7744A002068
:1056C00010B50446FFF7A0FFE3680B4A4BB113681F
:1056D0003BB1A34203D1094A1268DA6007E09B6834
:1056E000F6E7064B1B68E36013681460A360BDE82F
:1056F0001040FFF767BF00BF744A00207C4A0020BB
:10570000024B1868003018BF01207047744A00200F
:1057100010B50B4A04461368834206D183681360B0
:1057200008E09A68944203D01346002BF9D103E0B5
:10573000A2689A60FFF746FF0023A360E36010BDF4
:10574000744A002038B5836804460D469BB10A4868
:1057500004600220A07304F10C009847023801286D
:1057600001D9832D05D121462046BDE8384000F0FF
:1057700005B80123A37338BD7C4A00202DE9F84306
:105780001C4A0446156889462B4690461A4E3768CF
:10579000A34204D00BB11B68FAE7BDE8F88334B329
:1057A000A37BABB10023A37345B1A54204D022462D
:1057B0008721284607F0FEF92D68F5E7A3683BB17D
:1057C0004C4505D034602A46832104F10C009847EB
:1057D000D8F800309C4203D12268064B05E01346FE
:1057E00023B11A689442FAD122681A603760BDE882
:1057F000F88300BF804A00207C4A0020002370B557
:105800001D46094A01261370084A146854B1E37B07
:1058100033B1A673E573002282212046FFF792FF81
:105820002468F3E770BD00BF295F0020804A002094
:10583000024B1878421C1A70704700BF2A5F002084
:10584000064B8A221A70064A00231370054A137009
:10585000054A1360054A1360704700BF2A5F0020A5
:10586000275F0020285F0020804A00207C4A00201B
:105870002DE9F0411A4D2B780BB1FFF7BFFF194C02
:1058800022783AB3184E0C213378184F59437818C0
:1058900017F8018001334768806803F01F03013A5D
:1058A0003370227068B9124B1E689EB12B780BB111
:1058B000FFF7A4FF30463A46414607F07BF93668C9
:1058C000F3E7B8F1810F04BF012383733A464146E1
:1058D00007F070F92B7820781844BDE8F08100BFFC
:1058E000295F0020285F0020275F0020844A0020D5
:1058F000804A0020024A034B10781B7818447047F6
:10590000285F0020295F0020F0B50B4E3378202B54
:105910000FD00A4C0C252478094F1C4404F01F04B6
:105920006C4301333D19A86039556A60337000201B
:10593000F0BD0120F0BD00BF285F0020275F0020E0
:10594000844A002038B5034C256807F033F92560F8
:1059500038BD00BF7C4A002030B40A4C0A46256896
:105960002B4683420CD00BB11B68FAE740B10121F2
:105970000560817320608381812130BCFFF7E2BF25
:1059800030BC7047804A002038B1837B013B012B3B
:105990009FBF024A0123C37313707047295F002021
:1059A000024610B5064853600468029B116093607C
:1059B000026014B90846FEF747F9002010BD00BF89
:1059C000044C002010B5084C206858B10023236017
:1059D000816843689847236823B1BDE81040186880
:1059E000FEF732B910BD00BF044C002010B50446CC
:1059F000FEF7E6F894E80C001344C01A024B9842F4
:105A00008CBF0020012010BDFEFFFF7F70B5058810
:105A10000446672D09D0792D30D0002D34D1FFF701
:105A200007FF1C4B18701C4B1D601B4D2E461B485E
:105A300007F0A3F9431C01D167231DE00A28164A89
:105A400007D02B687E2BF2DC5A1C3260144AD054EB
:105A5000EDE713680025591C1160114A2846D554FA
:105A60000C4B1978FFF750FF0E4B2A46852118681A
:105A7000FFF74AFF20B97923238009E0852907D160
:105A8000054B00221A60D0E700230380032070BD7D
:105A9000012070BDF36C0020084C00200C4C00204D
:105AA000AC5F00207C4A00200D2810B5014615D0BF
:105AB0000B4C23782BB90B4807F04CF948B901235C
:105AC00006E00A2805D1074807F044F908B1002389
:105AD00023700548FFF758FF012010BD002010BDBE
:105AE000AB5F00200C4C0020E840002008B50549C1
:105AF0000548802207F027F9BDE808400021034847
:105B0000FFF72ABF2B5F00200C4C0020E84000204C
:105B1000054A136843F004031360044B1B68906943
:105B200043EA002080B2704700700D4014700D40B1
:105B300010B5184A136823F00C031360164B0122AA
:105B40001A601A68012AFCD1144B08221A60E32259
:105B5000C3F8142203F505731946114A1368DB07CD
:105B6000FCD5104C102000232268013802F00102FD
:105B700043EA02034FEA43039BB2F5D1002BF1D075
:105B8000094A180A03F0FE0310601360EF230B604C
:105B900010BD00BF00700D40A8200D4024860840B5
:105BA000648608409C86084014700D402DE9F04141
:105BB00006880546772E31D07E2E40D0002E4ED15D
:105BC0002B4CFFF735FE266026462A4B2A4FDFF87E
:105BD000B0801870236857F823204AB1002108F8D4
:105BE0000310936880209847336801333360F1E7EE
:105BF000224A1370772320E0214AD256002A12DB72
:105C00001B4A136801331360194B1C4A1B68127836
:105C10009A42F1DC1B4B1B68002BEBD0194A002386
:105C20001360134AEFE7144A002052F82320114B67
:105C30001978FFF769FE30B97E232B8014E00D4BF5
:105C40001B788B4210D10A4B0D491A688B5C03F00C
:105C50007F038B540B4A136801331360D0E7002392
:105C600003800320BDE8F0810120BDE8F08100BF82
:105C7000144C0020F46C0020A04000202C60002078
:105C8000EF6C0020184C002010B40A4B0A491A7817
:105C90000023934203DA51F82340A04208D1074978
:105CA0000748CA5C62F07F02CA5410BCFFF76CBEA2
:105CB0000133EEE72C600020A0400020EF6C0020B4
:105CC000F84000200C4AB82303FB00220023F0B563
:105CD00053821E461A4640F24C550849CC18A77804
:105CE00027B15F5C874204BFA67001327133AB42BB
:105CF000F4D11046F0BD00BF384C002038600020C1
:105D000008B5064802F0B0F9054B01221A70FD21D2
:105D100000225A709970DA7008BD00BF555F2000EC
:105D20002E60002030B513780546087A83F0020310
:105D300098421DD1487A5378984219D1887A93783D
:105D4000984215D1C87AD378984211D1087B13793B
:105D500098420DD1487B5379984209D1887B937939
:105D6000984205D1C87BD379984201D103201BE02A
:105D70000B890F4C6BB94B89B3F57F4F09D18B89D8
:105D8000FE2B06D12368CA89022023F8022B236048
:105D90000AE0226801F1080303CB083242F8080C3C
:105DA00042F8041C01202260A840C0B230BD00BFF0
:105DB000244C002010B50E4C0220A17904F042F9C9
:105DC000A379112B01D0062B05D1218D638D99422A
:105DD000A8BF194606E03A2B03D1218D49BA89B2F2
:105DE00000E000210120BDE8104004F02BB900BF05
:105DF0001869002010B5084C01462378012B08D102
:105E00000822A01C06F0E4FA00280CBF204600205F
:105E100010BD002010BD00BF2E60002008B5014657
:105E2000102004F01DF9044B00219B68034898479B
:105E3000BDE80840FEF77CB85CE12000415E200030
:105E400010B50C461146204600F08EFF044B1B682F
:105E500013B19B6820469847024B1C6010BD00BFE1
:105E6000344C0020304C0020124AF8B5054600237F
:105E7000712000FB0324A678B6B9617004F00CF819
:105E800026460D4F0D4A3B7806F8035BC01A15688D
:105E9000A0701D4404F000F83A782946821A304672
:105EA00006F0C8FAA078F8BD01330C2BE1D14FF011
:105EB000FF30F8BD3860002084650020284C0020A9
:105EC0002DE9F84315090F2D0646984602F00F04F8
:105ED00003D00F2C35D045B103E00F2C2FD1102467
:105EE00025462A46304606F0A5FA2A190F2A2746E3
:105EF00005DCC2F110020021701906F075FBBCB17F
:105F0000DFF84C80C7F11000D8F8009022464946CF
:105F1000304406F08FFA022C05D10A2D9FBFFF23D3
:105F2000F372FE2333734C44C8F80040BDE8F88395
:105F300065B141463046BDE8F84306F067BF10251D
:105F4000CFE71024002DCCD12746D9E7BDE8F88350
:105F5000244C00202DE9F04F934E944D87B0002340
:105F600033702B70044604F013F803F0A7FF904A37
:105F7000904B126818600296009501930AB1FFF7E2
:105F800019FF0CB98C4900E0214604A807F044FD34
:105F90008A4BDFF830A21A8803933E2A019B40F215
:105FA0001382D3F80080864E08F102033360009B11
:105FB0000AF118001F780023023708F80730FFF7AE
:105FC00019FF20B90AF10800FFF714FF20B108F10A
:105FD00003033360802400E004469AF801209AF815
:105FE0000010130943EA0113DBB2980840EA831357
:105FF0005BB212F00F0FDDB201F00F000DD171494D
:10600000498851B910B912F0F00F21D06C4A1368C9
:1060100003F8015B136070251BE0694978B912F041
:10602000F00F0CD1086823F03F031A43664B02704F
:106030001B88033020F8023C6825086009E0614AAB
:106040000B681068186003F8045B0B60602500E0C3
:1060500078255C4B99469979594B112908BF45F031
:10606000040515F0040F02BF1A6802F8011B1A603C
:1060700099F80720402A06D0FF2A07D0012A08D124
:1060800045F0010509E045F0020506E045F003058D
:1060900003E0196801F8012B1960B9F80820494B91
:1060A00082B95A8972B99A8962B9DA8952B91A8A57
:1060B00042B95A8A32B99A8A22B9DB8A13B944F0B2
:1060C000400013E04148FFF795FE414B186078B15E
:1060D000427818F807303D4943EA021308F80730C0
:1060E0003C4A0420FFF71EFE60F03F00C4B229E0E6
:1060F00048F2FE03B9F8082032499A420CD14B8B82
:1061000053B98B8B43B9CB8B33B9324A0831042056
:10611000FFF708FE2043E9E7294BDFF8B0C01A6813
:10612000994696460CF1100B634603CB5B45CEF8BF
:106130000000CEF804109C460EF1080EF4D1103287
:10614000C9F80020DFF87CB0DFF874909BF81830B5
:10615000FF2B40F08D809BF8192044F0080E022A96
:106160005FFA8EFE38D1BBF81A30ABBBBBF81C30DF
:1061700093BBBBF81E307BBBBBF8203063BBBBF8C6
:1061800022304BBBBBF8243033BB9BF826301BBB03
:10619000D9F800309BF8272044F00B0003F8012BBE
:1061A000C4B2C9F80030A2E02D6000208465002050
:1061B000344C0020284C002085E82000086900208D
:1061C000244C0020186900201A6900202069002052
:1061D0001C4C0020106900209C4B598BA1BB998B53
:1061E00091BBD98BB1B9198CA1B9598C91B993F8DC
:1061F000241079B9D9F8001044F00A00C4B2084656
:1062000000F8012B33F8252F043121F8032C9B785B
:10621000837016E08D4BD98BB1B9198CA1B993F865
:10622000221089B9D9F8001044F00900C4B2084618
:1062300000F8012B53F8232F063141F8052C1B7968
:106240000371C9F8001052E0D9F80020804F1446BD
:1062500007F1100C3B4603CB6345206061601F468D
:1062600004F10804F6D11032C9F8002074463EE06B
:106270000BF11800FFF7BEFD764B186068B118F8F7
:106280000710437844F004040B43E4B208F80730E5
:1062900004AA0BF11801002011E048F2FE03BBF83C
:1062A00018209A4210D1BBF81A306BB9BBF81C30D9
:1062B00053B9BBF81E303BB904AA0BF11801FFF724
:1062C00031FD2043C4B212E0D9F80020DFF880E1AC
:1062D00017460EF1100C734603CB634538607960A6
:1062E0009E4607F10807F6D15B4B10321A60029AFE
:1062F00056482823137083795749112B59D1028DA1
:10630000130A43EA02234FF2B0029BB223F00F07B5
:10631000BFB297421AD1B0F82AE04FEA1E2242EAF1
:106320000E2222F00F0292B2BA420FD13268F3234A
:106330001370038D02321F0A438D1B0A03EB0713F0
:1063400003F5AA6302F8013C326029E0BAF82A009A
:106350003E4A000280B2B0F5704F09D13368F12097
:106360001870108DA3F80100528D120ADA700CE03B
:1063700003F47F43B3F5704F0AD13368F2201870ED
:10638000108D000A5870528D5A800433336007E034
:106390000B68F0201870906A053343F8040C0B600A
:1063A0002E4B1A880B6823F8022B029A0B603023BD
:1063B0001370019B1A68009B1B78D55413445C70C2
:1063C0000B689B1A009A19E01A6841231370009B0E
:1063D0000AF128051C78631CDBB21344524603CA39
:1063E000AA4218605960924603F10803F6D1009B57
:1063F00029341C70029B029A1B782833137004A95D
:10640000102003F02DFE164B164E1B68984730EAFD
:10641000200028BF1520029A0099039B14781B883E
:106420000D78C0F17D071A1B791B8A42DFF838A06E
:1064300040F3BC80C0F1780B93FBFBF403F03AFE11
:106440000138844212DB0020C1E000BF186900203F
:10645000306900201C4C0020244C0020466900209C
:1064600030E120000869002084650020DFF8789181
:106470000023C9F80030019B9AF80050D3F800803F
:106480002A46414608F1040006F04AF83388514A8A
:106490001B0A63F03F0388F800303388043588F81E
:1064A00001301388EDB2591C118088F803301A0AA4
:1064B000494B7C1B1978494B24F00704484F194479
:1064C00088F8022008EB0500224602938AF8005063
:1064D0003C6005F0AFFF281980B203F0D3FC03F055
:1064E000EFFD029B04461D460028ACD00DF11008BC
:1064F0004046FFF793FC204603F01AFE204603F0C7
:1065000001FED9F80030012B9DD0043B012B9AD914
:10651000314B2BF007001C783B68B3461C44052325
:106520008AF80030BA462F4BA4B21A683388386014
:106530001B0A63F01F03137033885370BBF80030DD
:106540009C4243D2019A1B1B1068E20802713A6810
:1065500029199342B8BFCAF80030009B3E681B78E7
:1065600032461844029305F065FF029B981980B2E9
:1065700003F088FC03F0A4FD064600283FF463AF57
:106580004046FFF74BFC304603F0D2FD304603F0A7
:10659000B9FDDAF800301C44D9F80030A4B2012B60
:1065A0003FF451AF043B012BC8D84CE7019B0B498A
:1065B00018682144284405F03DFF30882844001B1A
:1065C00080B203F05FFC04A8FFF728FC012007B0AD
:1065D000BDE8F08F325800202D600020186900209F
:1065E0002C4C0020284C0020304C00202DE9F04796
:1065F000074688461546002A4CD0414E0024B04636
:10660000338ABB4216D1738AA3B10F2003F034FD45
:106610000146304607F005FA60B15FFA84FA294670
:106620005046FFF721FC002829DA0027DFF8D49034
:106630003E460FE00134022C06F1B806E0D14FF0DF
:10664000FF30BDE8F087A64209D10136022E09F1DC
:10665000B8090ED039F8063C002BF6D0F3E74846CF
:1066600006F0CEFA0028F0D0F0B2FFF72BFB07447B
:10667000EBE7002FE3DD29465046FFF7F5FB002846
:10668000DDDDB82303FB04839A8A1044988260B24C
:10669000BDE8F0871B4E4FF0FF3436F8063C63B37D
:1066A000304606F0ADFA10B1E8B2FFF70BFB611C03
:1066B00003D136F8063C03B96CB20135022D06F160
:1066C000B806EAD1621C15D0B8256543DFF83090D2
:1066D0000F2009EB0506A6F81280378203F0CCFCE8
:1066E0000146304607F098F905F11800402148446A
:1066F00006F074FA2046BDE8F087631CDDD1DBE7C5
:10670000384C0020504C00202DE9F04F0F2087B06E
:10671000DFF8F482AE4C03F0AFFC002603F0ECF996
:1067200088F80060267003F0C9FBAA4DA2462860D5
:10673000042003F08FFCA84B2A6800B21860577839
:106740001378CDF8008047EA032703F0F803C02B45
:1067500002D0E02B1BD03DE09478D0789AF800303E
:10676000C7F30A0704333246394640EA04208AF860
:106770000030FFF73BFFB0F1FF3F804600F06F8233
:10678000964CB82303FB00440126223425E092F8FE
:1067900004B09478D0789AF80020C7F30A0705323D
:1067A0008AF8002039465A4640EA0420FFF71EFFC7
:1067B000B0F1FF3F804600F052828849B82202FBC8
:1067C0000012958A4FF00109BD4234BF0025012512
:1067D0003446D1E1B0463746814C28689AF800101B
:1067E000425C02F0E003602B40F0A9818D1C014463
:1067F00091F801907B4B4FFA89FB0544BBF1000FE8
:106800001D60BCBF01351D6012F0100F02F00801C1
:106810002FD1D1B9196831F8010FA4F80100897896
:10682000E170196811F8040B1960830803F00F0177
:1068300041F060012170617803F0300343EA801376
:1068400001F00F010B4363702EE0186860210546CC
:10685000217015F8011B03304FEA910E0EF0300E37
:1068600001F00F014EEA0101617029881860618012
:106870001AE001F0FF0591B919680878C0F38300A8
:1068800040F06000207011F801EB65804FEA9E0037
:1068900000F0300040EA8E106070196004E0602360
:1068A000237000236370638002F0040303F0FF0190
:1068B00001912BB94B490B6813F8010BA0710B60C8
:1068C00012F003020BBF474A474B13689B5C09BF9A
:1068D00013F8011BE3711360E17119F0400FC9F364
:1068E000011230D0BBF1000FBDBF3A499AF8003019
:1068F00009680025BEBF5B189D782D0922B904F1F7
:1069000008058AB9114612E0384B1978012905D1DA
:106910005978A9420CBF1D46002500E00025344BE4
:106920001D60002DEBD122E1314B19680231314B52
:106930000F209A5C0391029203F09EFB029A034699
:106940000399284609E02C4B0F209D5C03F094FB33
:106950002A462A49034604F10800FFF7B1FA09F074
:10696000080109F0030201F0FF0509F00403A1B1D9
:10697000002B67D1224B1B88ADF81430531E012B1E
:1069800006D818490B6813F8010B8DF815000B6039
:106990001C4900238A5C05A950E0002B46D0BBF1BE
:1069A000000FBDBF0B499AF8003009682B46B8BFED
:1069B0005B180E49B8BF9D780878B8BF05F00F0383
:1069C000012823D14D789D420CBF0D4600251EE0C5
:1069D00084650020284C0020204C0020384C0020EA
:1069E00018690020244C002033E820002E6000208D
:1069F0001C4C00204CE8200037E820003BE8200039
:106A000031E820003DE820002D6000200025954B56
:106A10001D60002D00F0AB80934B102013F8029006
:106A200003F02AFB4A460346A91C07E08F4B1020BF
:106A30009D5C03F021FB2A4603468D4904F11800B2
:106A4000FFF73EFA009B009A18788A4900F1280364
:106A50001370019B002B53D00B681A7802F0F802D8
:106A6000F02A4DD11122A2711A7802F0040502F029
:106A7000F302F03AEDB2032A7BD8DFE802F0020A13
:106A80001622B3F801200533228533F8022C6285E3
:106A90002CE0B3F801202285DA78A2F5805292B278
:106AA000120242F0F002628509E05A78A2F58052A3
:106AB00092B2120242F0F00222855A8862850433B3
:106AC00014E05A7802331209A2F5756292B21202EA
:106AD00042F0F002228513F8012C02F00F02A2F519
:106AE000756292B2120242F0F00262850B6025B923
:106AF0000B6833F8022BE2850B60009B3030187076
:106B00005D4A0B6812689B1A8AF8003067B903F077
:106B1000C3F95A4B1B78C01A009B1B7818442838BD
:106B200003122371607104E0A7F128031A12227185
:106B30006371A379112B1CD1A388A38519E0412A85
:106B400040F08D804A1CD2B28318224603F12800FF
:106B500053F8045B834242F8045BF9D1009B009A2E
:106B60001B78293128338AF80010137001E0B146F0
:106B700001E0B1460025AB4603F08EF99AF80020FB
:106B800082426CD803F088F93C4A11783C4A431A97
:106B900001931360009B019A93F800A04FEACB0386
:106BA0009BB253441344B3F5807F58D834B1324B71
:106BB00004EB0A001B68194405F03CFC002F36D09A
:106BC0004EB1019B2F490AEB0302B82303FB0813C4
:106BD00092B29A821A8485B3B82202FB08F329493B
:106BE0002948CA18114697822231128C05F022FCDE
:106BF000264C254E04F24C5514F8012C52B114F8D1
:106C0000033C984506D114F8020C214606EBC0005F
:106C100005F010FC7134AC42EED15FFA88F0FFF75A
:106C200051F8B9F1000F0BD0194B1F800DE0B9F1ED
:106C3000000F05D0002DF7D111E0B9F1000F0ED1F2
:106C4000019B9A44124BA3F800A0124C236823B175
:106C5000FFF7B0F823685B68984701F02BFA07B09C
:106C6000BDE8F08F1C4C00204CE8200037E82000E5
:106C70003BE82000244C0020284C002084650020A4
:106C80002C4C0020384C0020186900203B6000206C
:106C900008690020344C002010B5044640B102F0D1
:106CA00085FE044B2146BDE81040186803F094B8F7
:106CB00010BD00BF0841002008B502F043FF034BA0
:106CC00003491868BDE8084002F0D2BF084100201F
:106CD000996C200070B504460C481E469DF81020A3
:106CE000059B006802F0F4FF054668B120462B467C
:106CF00004F1100250F8041B904243F8041BF9D130
:106D00006E74284602F052FE284670BD08410020ED
:106D1000024B0146186806F0EBBE00BF0841002098
:106D200070B50C4D0646286802F0B6FF044666B9F9
:106D3000002070BD10223146204605F049FB38B1D5
:106D40002146286806F0A6FE0446002CF2D1EFE7A3
:106D5000204670BD08410020024B0146186806F02D
:106D6000B4BE00BF0841002070B5054610200E4695
:106D700003F082F90849044606F053FE58B932463A
:106D80002946204602F07CFE324629462046BDE8D0
:106D9000704002F0E1BD70BD85E820002DE9F843A8
:106DA00005460F480F46904605F03BFF0446DFF8C6
:106DB000389094B1012D04D80A4805F064FF0346C9
:106DC00001E0D9F800304246394628466668B047A7
:106DD000204605F05FFF0446EBE7BDE8F88300BFFF
:106DE00074510020EC4D0020E84D002008B50B4800
:106DF00005F053FF0A4805F011FF0A4B0A491868CD
:106E000002F036FF094805F048FF094805F006FF83
:106E1000BDE80840074805F001BF00BF3C41002025
:106E2000704E002038410020B9CD20001C410020C8
:106E3000EC4D00207451002008B540B1044B41686E
:106E4000186806F055FEBDE8084005F0A6BF08BD6D
:106E500038410020014805F0E4BE00BF704E00201C
:106E600008B505F09CFF38B1044B0146186806F0E0
:106E70002CFE003018BF012008BD00BF38410020A3
:106E80002DE9F0418046FFF7E5FF002704463E4626
:106E90009CB194F82450AF420AD8EA0804F10801E2
:106EA000404605F095FA18B9802D08D02F462646A1
:106EB000204605F07DFF0446EAE76EB134460848F7
:106EC00005F0AFFE844207D02146054805F0B3FE29
:106ED0002146034805F0CFFE2046BDE8F08100BF03
:106EE000704E002038B5044600283ED04368002B81
:106EF0003BD001461D4805F09EFE6368586805F0CA
:106F000090FE054630B143689C4207D0284605F004
:106F1000C1FEF6E704F1080001F0B8F963682946FC
:106F2000586805F088FE6368586805F07AFE28B94D
:106F3000636859680E4B186802F04EFF21460D48F1
:106F400005F0CFFE29460C4805F0CBFE0B4A204643
:106F50001368013B1360FFF76FFF04F1080102465D
:106F6000BDE838400320FFF719BF38BD704E002040
:106F7000384100203C41002048410020E84D0020DD
:106F800010B5044680B1406870B105F04AFE20B1EA
:106F90004068FFF7A7FF6068F7E7044B2146BDE8AC
:106FA0001040186802F018BF10BD00BF3841002023
:106FB0002DE9F84F074610468946904605F0EFFE4A
:106FC000834610B90020BDE8F88F3846FFF758FF18
:106FD000044660B1FFF730FF014628B11022404659
:106FE00005F0F6F9002856D02046FFF77BFF2B4B23
:106FF0001A689A46102AE5D0294E5946306806F09C
:1070000064FD054668B9034604225946306802F01B
:107010005FFE05460028D5D000236860036005F0B8
:10702000FDFD204805F049FE04460028CAD001466F
:107030001D4805F020FE1D4805F03FFE20B9214601
:10704000184805F04EFEBDE744600146686805F04B
:1070500005FEDAF800306560013329463068CAF869
:10706000003002F0CFFE3B4604F1080507F11006A0
:107070002A4618685968083303C2B3421546F7D147
:10708000002384F82490A361E361236242463946D9
:107090000220FFF783FE2046BDE8F88FE84D002070
:1070A000384100203C410020704E00204841002023
:1070B00038B505460D4805F0B4FD0446A0B1AC4214
:1070C0000ED12146094805F0B6FD2146084805F0D5
:1070D00008FE221D1146BDE838400120FFF75EBEC4
:1070E000204605F0D7FDE8E738BD00BFEC4D002095
:1070F0001C41002038B50546084805F092FD0446BD
:1071000048B110222946201D05F062F918B1204629
:1071100005F0C0FDF3E7204638BD00BFEC4D002070
:10712000F8B505460F46FFF7E5FF044640B913489A
:1071300005F0C3FD0446F0B10146114805F09BFD82
:107140002B46261D05F1100E324618685968083383
:1071500003C273451646F7D137B1394604F114001E
:1071600005F035FD002300E0012323772A46294658
:107170000020FFF713FE2046F8BD00BF1C41002091
:10718000EC4D002038B50A4805F04BFD04460025BB
:107190005CB1251D2846FFF7C3FD08B1437C23B928
:1071A000204605F077FD0446F2E7284638BD00BFCB
:1071B000EC4D002010B50A4805F033FD044670B1CF
:1071C000237F43B904F11400FEF710FC18B12046E8
:1071D000FFF76EFFEFE7204605F05CFDEEE710BD20
:1071E000EC4D00202DE9F341154D009104460E466B
:1071F00090461F460195034620220321114805F0C1
:10720000DDFD01282B4616D12A6804F1100110700B
:1072100020462A68023250F8044B884242F8044B58
:10722000F9D11868089B86744361099B80F8138024
:107230000777836100E0002002B0BDE8F08100BF65
:107240007C51002098680020F8B507460B4B0C4D88
:1072500003F160062B602C68B4420BD2237833B163
:10726000A27C3946D208A01C05F0B2F820B1203427
:107270002C60F0E70020F8BD0120F8BD98680020E0
:107280007C51002013B5084C8023009301940346E1
:1072900020220321054805F091FD08B9206800E08F
:1072A000002002B010BD00BF80510020B467002054
:1072B00030B548F2FE040C4B0C4A03F16001136038
:1072C00013688B420CD21D783DB1451C02D09D7CC9
:1072D000854202D15D88A54203D020331360EFE7D9
:1072E0000023184630BD00BFB46700208051002045
:1072F00037B5104D802300930446034601951222B2
:1073000005210D4805F05AFD01282B460ED12A68AB
:1073100004F11001107020462A68023250F8044B24
:10732000884242F8044BF9D1186800E0002003B00D
:1073300030BD00BF7851002038680020F7B5214CDF
:1073400080230093054603460E46174601942022EB
:1073500003211D4805F032FD012830D12A4623685B
:1073600005F1100118702368023352F8040B8A42A9
:1073700043F8040BF9D12068C77416B901230375CB
:1073800005E0002303753146183005F020FC236822
:107390000E480121997402234370FF2200230270DA
:1073A00043808380C38003818372C17202736B7BCD
:1073B0004373EB89C381FFF79BFF206800E0002047
:1073C00003B0F0BD80510020B46700205459002064
:1073D00013B5084C80230093019403461222052123
:1073E000054805F0EBFC08B9206800E0002002B079
:1073F00010BD00BF785100203868002038B5054620
:10740000C8B10D48022200244270FF230122C2723B
:1074100044808480C4800481847203730370EB7B96
:1074200043732B8AC381FFF7D3FF044A106008B16E
:1074300005F0E8FC2C7038BD54590020785100202C
:1074400070B50F4C0F4B2646236003F16005206892
:10745000A8420ED2037843B1037D33B91830FEF74A
:10746000C5FA10B13068FFF7C9FF236820332360E5
:10747000EDE7FFF79FFEBDE87040034805F080BBD5
:1074800080510020B4670020F86800202DE9F84FF3
:1074900048F2FE030A8805469A420F4623D00A782E
:1074A000FF2A20D01C490024A04689469B461B4A3F
:1074B0000A6002F1600AD9F80060564517D23378A5
:1074C0006BB1B37C012B0AD173885B4507D0B11C2B
:1074D000384605F0A4FC80459CBF344680462036E3
:1074E000C9F80060E7E70120FFF7E2FE04464CB967
:1074F0002C806C80AC80EC802C816C81AC81EC8128
:10750000BDE8F88FA31C123453F8042BA34245F8AE
:10751000042BF9D1BDE8F88F80510020B46700201A
:1075200070B5094EB0684508FEF7F2FA0446FEF75A
:10753000EFFA2402B268A4B22044B0FBF2F302FBDB
:107540001300284470BD00BF9C67002073B52F4C0A
:10755000FFF7B2FBFFF74AFC602200212C4805F040
:1075600043F80021F822204605F03EF8294B20225E
:107570001A70294B18221A704FF4A0632360274B0E
:1075800040262671A360FFF7CBFF42F21073236100
:1075900048F2FE03314640F2FF260025E0602575E3
:1075A0001F4C2A46238065802B46A580E580204617
:1075B00001950095FFF716FE20461A4905F026FCB6
:1075C000294601222046FFF7B9FE4FF4807320467A
:1075D000E38126806580A580E58025816581A58180
:1075E000FFF786FE4FF40073204626806580A58055
:1075F000E58025816581A581E381FFF779FE0A4851
:107600000C2102B0BDE8704005F0B1BA9C670020C3
:10761000986800209568002094680020C027090021
:107620005459002010690020F86800202DE9FF4718
:10763000224C234D04F108030FCB8DE80F002B786B
:107640006F4694F80780BBB11E493A22A2710A889E
:10765000D21A92B20A80A2F128010812207103F115
:1076600028002044C3F1040361712C3A011D184421
:1076700004F056FF00232B70134805F0D2FA06469B
:10768000DFF840A09EB1D6F80490B9F1000F09D000
:10769000BAF800302A782C3B22449BB2383241465B
:1076A0003846C847304605F0F5FA0646EAE7054B86
:1076B0002E701E8004B0BDE8F08700BF186900205E
:1076C000A76500200869002084510020F8B52C4BE4
:1076D0002C4C1B7904F11806E371237E04F1080594
:1076E000FF2B08D195E80F0086E80F0031462846A9
:1076F000FFF7CCFE1BE02F46B646234A3B4603CBA2
:107700007345106051601F4602F10802F6D196E8F9
:107710000F0085E80F001C4B1C4D03F110062A4694
:1077200018685968083303C2B3421546F7D1184D9B
:107730002B78BBB117493A22A2710A88D21A92B2A9
:107740000A80A2F128010812207103F128002044C8
:10775000C3F1040361712C3A011D184404F0E0FEEA
:1077600000232B702B7881222833E518E254002364
:107770006B706B8005F08FFBC0436880F8BD00BF65
:107780009C6700201869002064590020306900209F
:10779000A76500200869002038B504460B480D464F
:1077A00005F03FFA50B10379A34204D143799D42D9
:1077B00006D0FF2B04D005F06DFAF3E7012038BDA9
:1077C0008368002BFAD09847002038BD88510020EC
:1077D0000146014805F042BA885100202DE9F74FD3
:1077E000474D82462B7889469346464C43B1283311
:1077F000E35C3A2B0BD1444A002313802B707CE0CE
:10780000A3793A2B03D194F92830002BF3DA3F4EB9
:1078100001F0D6F837463E4A06F1100E334603CB48
:107820007345106051601E4602F10802F6D1364ED3
:10783000DFF8D0803388414630339BB2B3F5A06F78
:1078400088BF4FF4A063338032882B78D21A04EBC0
:107850004300303A3030019304F062FE6022019B15
:1078600022700022627062803A2213B188F82820C8
:1078700001E088F80620274A224B1279E27122891A
:1078800072B95A8962B99A8952B9DA8942B91A8A9F
:1078900032B95A8A22B99A8A12B9DB8A002BAAD045
:1078A0001D4B0FCB87E80F00194B1B78FF2B05D121
:1078B000BAF1040F9FD1B9F1020F9CD114491648B7
:1078C000FFF7E4FD2F78584607F12803E21804F883
:1078D00003A082F8019005F0E4FA33882C37283BA6
:1078E000E0511A1263712B78227128331C44002353
:1078F000638005F0D0FAC043608003B0BDE8F08F2C
:10790000A765002018690020086900203069002060
:10791000645900209C670020206900202DE9F04177
:107920001E460F461B4905460C4660230B7000237C
:107930004B704B803A238B71174B90461B7900F1AB
:10794000100ECB71331D1A120A714B7101F118021E
:10795000134628686968083503C375451A46F7D188
:107960000E492C36A1F11000FFF790FD0C4B1B784F
:107970002833E518E75400236B8085F8018005F073
:107980008AFAC043074B68801E80BDE8F04100F0D2
:10799000A3BB00BF186900209C670020306900204D
:1079A000A76500200869002008B50448FFF710FF0C
:1079B000BDE808400248FFF70BBF00BF544100205C
:1079C0006041002037B5124B124D1C782B796A7933
:1079D000C4EB032313449BB2ADF80630BDF8063068
:1079E0002022184405F1080180B205F038FABDF8EC
:1079F000062004F1280192B2294405F030FA10B1B2
:107A000040BA80B201E04FF6FF7003B030BD00BF56
:107A1000A765002018690020F8B52C4F2C4D97F869
:107A200000E02C4C0EF1280C0CEB05035E780220D4
:107A3000F600207007360021864242DB0CEB000383
:107A4000EA18EB5C012B05D002D3632B06D014E0BF
:107A5000013033E05278023210442FE001B120703F
:107A600000F02CFFB8B13B782278283313441D4432
:107A70006B7813440233237025E003F0C003802B9E
:107A800004D0C02B09D0402B15D102E051B1207099
:107A900008E001B120700120F8BD01B120702B7EFB
:107AA000FF2BF8D00EEB0002283202210420FFF752
:107AB00095FE0220F8BD537802331844C0B201216C
:107AC000BAE701B120700020F8BD00BFA765002013
:107AD00018690020A965002008B5FFF737FDFFF7FA
